{
  "contractName": "DecentMed",
  "abi": [
    {
      "inputs": [],
      "stateMutability": "nonpayable",
      "type": "constructor"
    },
    {
      "anonymous": false,
      "inputs": [
        {
          "indexed": true,
          "internalType": "address",
          "name": "owner",
          "type": "address"
        },
        {
          "indexed": true,
          "internalType": "address",
          "name": "spender",
          "type": "address"
        },
        {
          "indexed": false,
          "internalType": "uint256",
          "name": "value",
          "type": "uint256"
        }
      ],
      "name": "Approval",
      "type": "event"
    },
    {
      "anonymous": false,
      "inputs": [
        {
          "indexed": true,
          "internalType": "address",
          "name": "previousOwner",
          "type": "address"
        },
        {
          "indexed": true,
          "internalType": "address",
          "name": "newOwner",
          "type": "address"
        }
      ],
      "name": "OwnershipTransferred",
      "type": "event"
    },
    {
      "anonymous": false,
      "inputs": [
        {
          "indexed": true,
          "internalType": "address",
          "name": "from",
          "type": "address"
        },
        {
          "indexed": true,
          "internalType": "address",
          "name": "to",
          "type": "address"
        },
        {
          "indexed": false,
          "internalType": "uint256",
          "name": "value",
          "type": "uint256"
        }
      ],
      "name": "Transfer",
      "type": "event"
    },
    {
      "inputs": [
        {
          "internalType": "address",
          "name": "owner",
          "type": "address"
        },
        {
          "internalType": "address",
          "name": "spender",
          "type": "address"
        }
      ],
      "name": "allowance",
      "outputs": [
        {
          "internalType": "uint256",
          "name": "",
          "type": "uint256"
        }
      ],
      "stateMutability": "view",
      "type": "function",
      "constant": true
    },
    {
      "inputs": [
        {
          "internalType": "address",
          "name": "account",
          "type": "address"
        }
      ],
      "name": "balanceOf",
      "outputs": [
        {
          "internalType": "uint256",
          "name": "",
          "type": "uint256"
        }
      ],
      "stateMutability": "view",
      "type": "function",
      "constant": true
    },
    {
      "inputs": [],
      "name": "cap",
      "outputs": [
        {
          "internalType": "uint256",
          "name": "",
          "type": "uint256"
        }
      ],
      "stateMutability": "view",
      "type": "function",
      "constant": true
    },
    {
      "inputs": [],
      "name": "decimals",
      "outputs": [
        {
          "internalType": "uint8",
          "name": "",
          "type": "uint8"
        }
      ],
      "stateMutability": "view",
      "type": "function",
      "constant": true
    },
    {
      "inputs": [
        {
          "internalType": "address",
          "name": "spender",
          "type": "address"
        },
        {
          "internalType": "uint256",
          "name": "subtractedValue",
          "type": "uint256"
        }
      ],
      "name": "decreaseAllowance",
      "outputs": [
        {
          "internalType": "bool",
          "name": "",
          "type": "bool"
        }
      ],
      "stateMutability": "nonpayable",
      "type": "function"
    },
    {
      "inputs": [
        {
          "internalType": "address",
          "name": "spender",
          "type": "address"
        },
        {
          "internalType": "uint256",
          "name": "addedValue",
          "type": "uint256"
        }
      ],
      "name": "increaseAllowance",
      "outputs": [
        {
          "internalType": "bool",
          "name": "",
          "type": "bool"
        }
      ],
      "stateMutability": "nonpayable",
      "type": "function"
    },
    {
      "inputs": [],
      "name": "name",
      "outputs": [
        {
          "internalType": "string",
          "name": "",
          "type": "string"
        }
      ],
      "stateMutability": "view",
      "type": "function",
      "constant": true
    },
    {
      "inputs": [],
      "name": "owner",
      "outputs": [
        {
          "internalType": "address",
          "name": "",
          "type": "address"
        }
      ],
      "stateMutability": "view",
      "type": "function",
      "constant": true
    },
    {
      "inputs": [],
      "name": "renounceOwnership",
      "outputs": [],
      "stateMutability": "nonpayable",
      "type": "function"
    },
    {
      "inputs": [],
      "name": "symbol",
      "outputs": [
        {
          "internalType": "string",
          "name": "",
          "type": "string"
        }
      ],
      "stateMutability": "view",
      "type": "function",
      "constant": true
    },
    {
      "inputs": [],
      "name": "totalSupply",
      "outputs": [
        {
          "internalType": "uint256",
          "name": "",
          "type": "uint256"
        }
      ],
      "stateMutability": "view",
      "type": "function",
      "constant": true
    },
    {
      "inputs": [
        {
          "internalType": "address",
          "name": "recipient",
          "type": "address"
        },
        {
          "internalType": "uint256",
          "name": "amount",
          "type": "uint256"
        }
      ],
      "name": "transfer",
      "outputs": [
        {
          "internalType": "bool",
          "name": "",
          "type": "bool"
        }
      ],
      "stateMutability": "nonpayable",
      "type": "function"
    },
    {
      "inputs": [
        {
          "internalType": "address",
          "name": "sender",
          "type": "address"
        },
        {
          "internalType": "address",
          "name": "recipient",
          "type": "address"
        },
        {
          "internalType": "uint256",
          "name": "amount",
          "type": "uint256"
        }
      ],
      "name": "transferFrom",
      "outputs": [
        {
          "internalType": "bool",
          "name": "",
          "type": "bool"
        }
      ],
      "stateMutability": "nonpayable",
      "type": "function"
    },
    {
      "inputs": [
        {
          "internalType": "address",
          "name": "newOwner",
          "type": "address"
        }
      ],
      "name": "transferOwnership",
      "outputs": [],
      "stateMutability": "nonpayable",
      "type": "function"
    },
    {
      "inputs": [
        {
          "internalType": "uint256",
          "name": "amount",
          "type": "uint256"
        }
      ],
      "name": "burn",
      "outputs": [],
      "stateMutability": "nonpayable",
      "type": "function"
    },
    {
      "inputs": [
        {
          "internalType": "address",
          "name": "account",
          "type": "address"
        },
        {
          "internalType": "uint256",
          "name": "amount",
          "type": "uint256"
        }
      ],
      "name": "burnFrom",
      "outputs": [],
      "stateMutability": "nonpayable",
      "type": "function"
    },
    {
      "inputs": [
        {
          "internalType": "address",
          "name": "spender",
          "type": "address"
        },
        {
          "internalType": "uint256",
          "name": "amount",
          "type": "uint256"
        }
      ],
      "name": "approve",
      "outputs": [
        {
          "internalType": "bool",
          "name": "",
          "type": "bool"
        }
      ],
      "stateMutability": "nonpayable",
      "type": "function"
    }
  ],
  "bytecode": "0x60806040523480156200001157600080fd5b50620186a06040518060400160405280600981526020017f446563656e744d656400000000000000000000000000000000000000000000008152506040518060400160405280600481526020017f444d454400000000000000000000000000000000000000000000000000000000815250601267016345785d8a00006040518060400160405280600a81526020017f446563656e74204d65640000000000000000000000000000000000000000000081525093506040518060400160405280600481526020017f444d45440000000000000000000000000000000000000000000000000000000081525092506012915067016345785d8a00009050505050506000811162000156576040517f08c379a00000000000000000000000000000000000000000000000000000000081526004016200014d90620004ce565b60405180910390fd5b806005819055505060016006819055506000620001786200023160201b60201c565b905080600760006101000a81548173ffffffffffffffffffffffffffffffffffffffff021916908373ffffffffffffffffffffffffffffffffffffffff1602179055508073ffffffffffffffffffffffffffffffffffffffff16600073ffffffffffffffffffffffffffffffffffffffff167f8be0079c531659141344cd1fd0a4f28419497f9722a3daafe3b4186f6b6457e060405160405180910390a3506200022b336103e86200023960201b60201c565b62000673565b600033905090565b62000249620002ca60201b60201c565b816200025f620002d460201b620004f41760201c565b6200026b919062000562565b1115620002af576040517f08c379a0000000000000000000000000000000000000000000000000000000008152600401620002a690620004f0565b60405180910390fd5b620002c68282620002de60201b62000cdc1760201c565b5050565b6000600554905090565b6000600254905090565b600073ffffffffffffffffffffffffffffffffffffffff168273ffffffffffffffffffffffffffffffffffffffff16141562000351576040517f08c379a0000000000000000000000000000000000000000000000000000000008152600401620003489062000512565b60405180910390fd5b62000365600083836200044360201b60201c565b806002600082825462000379919062000562565b92505081905550806000808473ffffffffffffffffffffffffffffffffffffffff1673ffffffffffffffffffffffffffffffffffffffff1681526020019081526020016000206000828254620003d0919062000562565b925050819055508173ffffffffffffffffffffffffffffffffffffffff16600073ffffffffffffffffffffffffffffffffffffffff167fddf252ad1be2c89b69c2b068fc378daa952ba7f163c4a11628f55a4df523b3ef8360405162000437919062000534565b60405180910390a35050565b505050565b60006200045760158362000551565b91506200046482620005f8565b602082019050919050565b60006200047e60198362000551565b91506200048b8262000621565b602082019050919050565b6000620004a5601f8362000551565b9150620004b2826200064a565b602082019050919050565b620004c881620005bf565b82525050565b60006020820190508181036000830152620004e98162000448565b9050919050565b600060208201905081810360008301526200050b816200046f565b9050919050565b600060208201905081810360008301526200052d8162000496565b9050919050565b60006020820190506200054b6000830184620004bd565b92915050565b600082825260208201905092915050565b60006200056f82620005bf565b91506200057c83620005bf565b9250827fffffffffffffffffffffffffffffffffffffffffffffffffffffffffffffffff03821115620005b457620005b3620005c9565b5b828201905092915050565b6000819050919050565b7f4e487b7100000000000000000000000000000000000000000000000000000000600052601160045260246000fd5b7f45524332304361707065643a2063617020697320300000000000000000000000600082015250565b7f45524332304361707065643a2063617020657863656564656400000000000000600082015250565b7f45524332303a206d696e7420746f20746865207a65726f206164647265737300600082015250565b611f0380620006836000396000f3fe608060405234801561001057600080fd5b506004361061010b5760003560e01c806370a08231116100a257806395d89b411161007157806395d89b41146102a8578063a457c2d7146102c6578063a9059cbb146102f6578063dd62ed3e14610326578063f2fde38b146103565761010b565b806370a0823114610234578063715018a61461026457806379cc67901461026e5780638da5cb5b1461028a5761010b565b8063313ce567116100de578063313ce567146101ac578063355274ea146101ca57806339509351146101e857806342966c68146102185761010b565b806306fdde0314610110578063095ea7b31461012e57806318160ddd1461015e57806323b872dd1461017c575b600080fd5b610118610372565b6040516101259190611747565b60405180910390f35b61014860048036038101906101439190611470565b610404565b604051610155919061172c565b60405180910390f35b6101666104f4565b6040516101739190611909565b60405180910390f35b61019660048036038101906101919190611421565b6104fe565b6040516101a3919061172c565b60405180910390f35b6101b46105ff565b6040516101c19190611924565b60405180910390f35b6101d2610608565b6040516101df9190611909565b60405180910390f35b61020260048036038101906101fd9190611470565b610612565b60405161020f919061172c565b60405180910390f35b610232600480360381019061022d91906114ac565b6106be565b005b61024e600480360381019061024991906113bc565b6106d2565b60405161025b9190611909565b60405180910390f35b61026c61071a565b005b61028860048036038101906102839190611470565b610857565b005b6102926108db565b60405161029f9190611711565b60405180910390f35b6102b0610905565b6040516102bd9190611747565b60405180910390f35b6102e060048036038101906102db9190611470565b610997565b6040516102ed919061172c565b60405180910390f35b610310600480360381019061030b9190611470565b610a8b565b60405161031d919061172c565b60405180910390f35b610340600480360381019061033b91906113e5565b610aa9565b60405161034d9190611909565b60405180910390f35b610370600480360381019061036b91906113bc565b610b30565b005b60606003805461038190611a6d565b80601f01602080910402602001604051908101604052809291908181526020018280546103ad90611a6d565b80156103fa5780601f106103cf576101008083540402835291602001916103fa565b820191906000526020600020905b8154815290600101906020018083116103dd57829003601f168201915b5050505050905090565b60006002600654141561044c576040517f08c379a0000000000000000000000000000000000000000000000000000000008152600401610443906118a9565b60405180910390fd5b600260068190555061045c610e30565b73ffffffffffffffffffffffffffffffffffffffff1661047a6108db565b73ffffffffffffffffffffffffffffffffffffffff16146104d0576040517f08c379a00000000000000000000000000000000000000000000000000000000081526004016104c790611809565b60405180910390fd5b6104e26104db610e30565b8484610e38565b60019050600160068190555092915050565b6000600254905090565b600061050b848484611003565b6000600160008673ffffffffffffffffffffffffffffffffffffffff1673ffffffffffffffffffffffffffffffffffffffff1681526020019081526020016000206000610556610e30565b73ffffffffffffffffffffffffffffffffffffffff1673ffffffffffffffffffffffffffffffffffffffff168152602001908152602001600020549050828110156105d6576040517f08c379a00000000000000000000000000000000000000000000000000000000081526004016105cd906117e9565b60405180910390fd5b6105f3856105e2610e30565b85846105ee91906119b1565b610e38565b60019150509392505050565b60006012905090565b6000600554905090565b60006106b461061f610e30565b84846001600061062d610e30565b73ffffffffffffffffffffffffffffffffffffffff1673ffffffffffffffffffffffffffffffffffffffff16815260200190815260200160002060008873ffffffffffffffffffffffffffffffffffffffff1673ffffffffffffffffffffffffffffffffffffffff168152602001908152602001600020546106af919061195b565b610e38565b6001905092915050565b6106cf6106c9610e30565b826111b9565b50565b60008060008373ffffffffffffffffffffffffffffffffffffffff1673ffffffffffffffffffffffffffffffffffffffff168152602001908152602001600020549050919050565b610722610e30565b73ffffffffffffffffffffffffffffffffffffffff166107406108db565b73ffffffffffffffffffffffffffffffffffffffff1614610796576040517f08c379a000000000000000000000000000000000000000000000000000000000815260040161078d90611809565b60405180910390fd5b600073ffffffffffffffffffffffffffffffffffffffff16600760009054906101000a900473ffffffffffffffffffffffffffffffffffffffff1673ffffffffffffffffffffffffffffffffffffffff167f8be0079c531659141344cd1fd0a4f28419497f9722a3daafe3b4186f6b6457e060405160405180910390a36000600760006101000a81548173ffffffffffffffffffffffffffffffffffffffff021916908373ffffffffffffffffffffffffffffffffffffffff160217905550565b600061086a83610865610e30565b610aa9565b9050818110156108af576040517f08c379a00000000000000000000000000000000000000000000000000000000081526004016108a690611829565b60405180910390fd5b6108cc836108bb610e30565b84846108c791906119b1565b610e38565b6108d683836111b9565b505050565b6000600760009054906101000a900473ffffffffffffffffffffffffffffffffffffffff16905090565b60606004805461091490611a6d565b80601f016020809104026020016040519081016040528092919081815260200182805461094090611a6d565b801561098d5780601f106109625761010080835404028352916020019161098d565b820191906000526020600020905b81548152906001019060200180831161097057829003601f168201915b5050505050905090565b600080600160006109a6610e30565b73ffffffffffffffffffffffffffffffffffffffff1673ffffffffffffffffffffffffffffffffffffffff16815260200190815260200160002060008573ffffffffffffffffffffffffffffffffffffffff1673ffffffffffffffffffffffffffffffffffffffff16815260200190815260200160002054905082811015610a63576040517f08c379a0000000000000000000000000000000000000000000000000000000008152600401610a5a906118c9565b60405180910390fd5b610a80610a6e610e30565b858584610a7b91906119b1565b610e38565b600191505092915050565b6000610a9f610a98610e30565b8484611003565b6001905092915050565b6000600160008473ffffffffffffffffffffffffffffffffffffffff1673ffffffffffffffffffffffffffffffffffffffff16815260200190815260200160002060008373ffffffffffffffffffffffffffffffffffffffff1673ffffffffffffffffffffffffffffffffffffffff16815260200190815260200160002054905092915050565b610b38610e30565b73ffffffffffffffffffffffffffffffffffffffff16610b566108db565b73ffffffffffffffffffffffffffffffffffffffff1614610bac576040517f08c379a0000000000000000000000000000000000000000000000000000000008152600401610ba390611809565b60405180910390fd5b600073ffffffffffffffffffffffffffffffffffffffff168173ffffffffffffffffffffffffffffffffffffffff161415610c1c576040517f08c379a0000000000000000000000000000000000000000000000000000000008152600401610c13906117a9565b60405180910390fd5b8073ffffffffffffffffffffffffffffffffffffffff16600760009054906101000a900473ffffffffffffffffffffffffffffffffffffffff1673ffffffffffffffffffffffffffffffffffffffff167f8be0079c531659141344cd1fd0a4f28419497f9722a3daafe3b4186f6b6457e060405160405180910390a380600760006101000a81548173ffffffffffffffffffffffffffffffffffffffff021916908373ffffffffffffffffffffffffffffffffffffffff16021790555050565b600073ffffffffffffffffffffffffffffffffffffffff168273ffffffffffffffffffffffffffffffffffffffff161415610d4c576040517f08c379a0000000000000000000000000000000000000000000000000000000008152600401610d43906118e9565b60405180910390fd5b610d586000838361138d565b8060026000828254610d6a919061195b565b92505081905550806000808473ffffffffffffffffffffffffffffffffffffffff1673ffffffffffffffffffffffffffffffffffffffff1681526020019081526020016000206000828254610dbf919061195b565b925050819055508173ffffffffffffffffffffffffffffffffffffffff16600073ffffffffffffffffffffffffffffffffffffffff167fddf252ad1be2c89b69c2b068fc378daa952ba7f163c4a11628f55a4df523b3ef83604051610e249190611909565b60405180910390a35050565b600033905090565b600073ffffffffffffffffffffffffffffffffffffffff168373ffffffffffffffffffffffffffffffffffffffff161415610ea8576040517f08c379a0000000000000000000000000000000000000000000000000000000008152600401610e9f90611889565b60405180910390fd5b600073ffffffffffffffffffffffffffffffffffffffff168273ffffffffffffffffffffffffffffffffffffffff161415610f18576040517f08c379a0000000000000000000000000000000000000000000000000000000008152600401610f0f906117c9565b60405180910390fd5b80600160008573ffffffffffffffffffffffffffffffffffffffff1673ffffffffffffffffffffffffffffffffffffffff16815260200190815260200160002060008473ffffffffffffffffffffffffffffffffffffffff1673ffffffffffffffffffffffffffffffffffffffff168152602001908152602001600020819055508173ffffffffffffffffffffffffffffffffffffffff168373ffffffffffffffffffffffffffffffffffffffff167f8c5be1e5ebec7d5bd14f71427d1e84f3dd0314c0f7b2291e5b200ac8c7c3b92583604051610ff69190611909565b60405180910390a3505050565b60026006541415611049576040517f08c379a0000000000000000000000000000000000000000000000000000000008152600401611040906118a9565b60405180910390fd5b6002600681905550600073ffffffffffffffffffffffffffffffffffffffff168373ffffffffffffffffffffffffffffffffffffffff1614156110c1576040517f08c379a00000000000000000000000000000000000000000000000000000000081526004016110b890611869565b60405180910390fd5b600073ffffffffffffffffffffffffffffffffffffffff168273ffffffffffffffffffffffffffffffffffffffff161415611131576040517f08c379a000000000000000000000000000000000000000000000000000000000815260040161112890611769565b60405180910390fd5b61113c83838361138d565b611147338383611003565b8173ffffffffffffffffffffffffffffffffffffffff168373ffffffffffffffffffffffffffffffffffffffff167fddf252ad1be2c89b69c2b068fc378daa952ba7f163c4a11628f55a4df523b3ef836040516111a49190611909565b60405180910390a36001600681905550505050565b600073ffffffffffffffffffffffffffffffffffffffff168273ffffffffffffffffffffffffffffffffffffffff161415611229576040517f08c379a000000000000000000000000000000000000000000000000000000000815260040161122090611849565b60405180910390fd5b6112358260008361138d565b60008060008473ffffffffffffffffffffffffffffffffffffffff1673ffffffffffffffffffffffffffffffffffffffff168152602001908152602001600020549050818110156112bb576040517f08c379a00000000000000000000000000000000000000000000000000000000081526004016112b290611789565b60405180910390fd5b81816112c791906119b1565b6000808573ffffffffffffffffffffffffffffffffffffffff1673ffffffffffffffffffffffffffffffffffffffff16815260200190815260200160002081905550816002600082825461131b91906119b1565b92505081905550600073ffffffffffffffffffffffffffffffffffffffff168373ffffffffffffffffffffffffffffffffffffffff167fddf252ad1be2c89b69c2b068fc378daa952ba7f163c4a11628f55a4df523b3ef846040516113809190611909565b60405180910390a3505050565b505050565b6000813590506113a181611e9f565b92915050565b6000813590506113b681611eb6565b92915050565b6000602082840312156113ce57600080fd5b60006113dc84828501611392565b91505092915050565b600080604083850312156113f857600080fd5b600061140685828601611392565b925050602061141785828601611392565b9150509250929050565b60008060006060848603121561143657600080fd5b600061144486828701611392565b935050602061145586828701611392565b9250506040611466868287016113a7565b9150509250925092565b6000806040838503121561148357600080fd5b600061149185828601611392565b92505060206114a2858286016113a7565b9150509250929050565b6000602082840312156114be57600080fd5b60006114cc848285016113a7565b91505092915050565b6114de816119e5565b82525050565b6114ed816119f7565b82525050565b60006114fe8261193f565b611508818561194a565b9350611518818560208601611a3a565b61152181611afd565b840191505092915050565b600061153960238361194a565b915061154482611b0e565b604082019050919050565b600061155c60228361194a565b915061156782611b5d565b604082019050919050565b600061157f60268361194a565b915061158a82611bac565b604082019050919050565b60006115a260228361194a565b91506115ad82611bfb565b604082019050919050565b60006115c560288361194a565b91506115d082611c4a565b604082019050919050565b60006115e860208361194a565b91506115f382611c99565b602082019050919050565b600061160b60248361194a565b915061161682611cc2565b604082019050919050565b600061162e60218361194a565b915061163982611d11565b604082019050919050565b600061165160258361194a565b915061165c82611d60565b604082019050919050565b600061167460248361194a565b915061167f82611daf565b604082019050919050565b6000611697601f8361194a565b91506116a282611dfe565b602082019050919050565b60006116ba60258361194a565b91506116c582611e27565b604082019050919050565b60006116dd601f8361194a565b91506116e882611e76565b602082019050919050565b6116fc81611a23565b82525050565b61170b81611a2d565b82525050565b600060208201905061172660008301846114d5565b92915050565b600060208201905061174160008301846114e4565b92915050565b6000602082019050818103600083015261176181846114f3565b905092915050565b600060208201905081810360008301526117828161152c565b9050919050565b600060208201905081810360008301526117a28161154f565b9050919050565b600060208201905081810360008301526117c281611572565b9050919050565b600060208201905081810360008301526117e281611595565b9050919050565b60006020820190508181036000830152611802816115b8565b9050919050565b60006020820190508181036000830152611822816115db565b9050919050565b60006020820190508181036000830152611842816115fe565b9050919050565b6000602082019050818103600083015261186281611621565b9050919050565b6000602082019050818103600083015261188281611644565b9050919050565b600060208201905081810360008301526118a281611667565b9050919050565b600060208201905081810360008301526118c28161168a565b9050919050565b600060208201905081810360008301526118e2816116ad565b9050919050565b60006020820190508181036000830152611902816116d0565b9050919050565b600060208201905061191e60008301846116f3565b92915050565b60006020820190506119396000830184611702565b92915050565b600081519050919050565b600082825260208201905092915050565b600061196682611a23565b915061197183611a23565b9250827fffffffffffffffffffffffffffffffffffffffffffffffffffffffffffffffff038211156119a6576119a5611a9f565b5b828201905092915050565b60006119bc82611a23565b91506119c783611a23565b9250828210156119da576119d9611a9f565b5b828203905092915050565b60006119f082611a03565b9050919050565b60008115159050919050565b600073ffffffffffffffffffffffffffffffffffffffff82169050919050565b6000819050919050565b600060ff82169050919050565b60005b83811015611a58578082015181840152602081019050611a3d565b83811115611a67576000848401525b50505050565b60006002820490506001821680611a8557607f821691505b60208210811415611a9957611a98611ace565b5b50919050565b7f4e487b7100000000000000000000000000000000000000000000000000000000600052601160045260246000fd5b7f4e487b7100000000000000000000000000000000000000000000000000000000600052602260045260246000fd5b6000601f19601f8301169050919050565b7f45524332303a207472616e7366657220746f20746865207a65726f206164647260008201527f6573730000000000000000000000000000000000000000000000000000000000602082015250565b7f45524332303a206275726e20616d6f756e7420657863656564732062616c616e60008201527f6365000000000000000000000000000000000000000000000000000000000000602082015250565b7f4f776e61626c653a206e6577206f776e657220697320746865207a65726f206160008201527f6464726573730000000000000000000000000000000000000000000000000000602082015250565b7f45524332303a20617070726f766520746f20746865207a65726f20616464726560008201527f7373000000000000000000000000000000000000000000000000000000000000602082015250565b7f45524332303a207472616e7366657220616d6f756e742065786365656473206160008201527f6c6c6f77616e6365000000000000000000000000000000000000000000000000602082015250565b7f4f776e61626c653a2063616c6c6572206973206e6f7420746865206f776e6572600082015250565b7f45524332303a206275726e20616d6f756e74206578636565647320616c6c6f7760008201527f616e636500000000000000000000000000000000000000000000000000000000602082015250565b7f45524332303a206275726e2066726f6d20746865207a65726f2061646472657360008201527f7300000000000000000000000000000000000000000000000000000000000000602082015250565b7f45524332303a207472616e736665722066726f6d20746865207a65726f20616460008201527f6472657373000000000000000000000000000000000000000000000000000000602082015250565b7f45524332303a20617070726f76652066726f6d20746865207a65726f2061646460008201527f7265737300000000000000000000000000000000000000000000000000000000602082015250565b7f5265656e7472616e637947756172643a207265656e7472616e742063616c6c00600082015250565b7f45524332303a2064656372656173656420616c6c6f77616e63652062656c6f7760008201527f207a65726f000000000000000000000000000000000000000000000000000000602082015250565b7f45524332303a206d696e7420746f20746865207a65726f206164647265737300600082015250565b611ea8816119e5565b8114611eb357600080fd5b50565b611ebf81611a23565b8114611eca57600080fd5b5056fea2646970667358221220bdb52cd854d93361f3ff250e13bda37cc792c03c0d2d531a5a52bcab22b63acd64736f6c63430008040033",
  "immutableReferences": {},
  "source": "// SPDX-License-Identifier: MIT\r\npragma solidity ^0.8.4;\r\nimport \"../@openzeppelin/contracts/token/ERC20/ERC20.sol\";\r\nimport \"../@openzeppelin/contracts/utils/math/SafeMath.sol\";\r\nimport \"../@openzeppelin/contracts/access/Ownable.sol\";\r\nimport \"../@openzeppelin/contracts/security/ReentrancyGuard.sol\";\r\nimport \"../@openzeppelin/contracts/security/PullPayment.sol\";\r\nimport \"../@openzeppelin/contracts/token/ERC20/extensions/ERC20Capped.sol\";\r\nimport \"../@openzeppelin/contracts/governance/TimelockController.sol\";\r\ncontract DecentMed is ERC20Capped, ReentrancyGuard, Ownable {\r\n    using SafeMath for uint256;\r\n    using Address for uint256;\r\n    constructor() ERC20(\"DecentMed\", \"DMED\", 18, 100000000000000000) ERC20Capped(100000) {\r\n            _mint (msg.sender, 1000);\r\n        }\r\n\r\n         function burn(uint256 amount) public virtual {\r\n            _burn(_msgSender(), amount);\r\n        }\r\n         function burnFrom(address account, uint256 amount) public virtual {\r\n            uint256 currentAllowance = allowance(account, _msgSender());\r\n            require(currentAllowance >= amount, \"ERC20: burn amount exceeds allowance\");\r\n            _approve(account, _msgSender(), currentAllowance - amount);\r\n            _burn(account, amount);\r\n        }\r\n        function isContract(address account) internal view returns (bool) {\r\n            // This method relies on extcodesize, which returns 0 for contracts in\r\n            // construction, since the code is only stored at the end of the\r\n            // constructor execution.\r\n\r\n            uint256 size;\r\n            // solhint-disable-next-line no-inline-assembly\r\n            assembly { size := extcodesize(account) }\r\n            return size > 0;\r\n        }\r\n        function _transfer(address sender, address recipient, uint256 amount) internal virtual override nonReentrant {\r\n            require(sender != address(0), \"ERC20: transfer from the zero address\");\r\n            require(recipient != address(0), \"ERC20: transfer to the zero address\");\r\n\r\n            _beforeTokenTransfer(sender, recipient, amount);\r\n            _transfer(msg.sender, recipient, amount);\r\n\r\n            emit Transfer(sender, recipient, amount);\r\n\r\n        }\r\n        function approve(address spender, uint256 amount) public virtual override nonReentrant onlyOwner returns (bool) {\r\n            _approve(_msgSender(), spender, amount);\r\n            return true; \r\n        }\r\n}",
  "sourcePath": "C:/Users/samue/DECENTMEDTOKEN/contracts/DECENTMEDtoken.sol",
  "compiler": {
    "name": "solc",
    "version": "0.8.4+commit.c7e474f2.Emscripten.clang"
  },
  "schemaVersion": "3.3.4",
  "updatedAt": "2021-04-30T02:33:27.865Z",
  "networkType": "ethereum",
  "devdoc": {
    "kind": "dev",
    "methods": {
      "allowance(address,address)": {
        "details": "See {IERC20-allowance}."
      },
      "approve(address,uint256)": {
        "details": "See {IERC20-approve}. Requirements: - `spender` cannot be the zero address."
      },
      "balanceOf(address)": {
        "details": "See {IERC20-balanceOf}."
      },
      "cap()": {
        "details": "Returns the cap on the token's total supply."
      },
      "decimals()": {
        "details": "Returns the number of decimals used to get its user representation. For example, if `decimals` equals `2`, a balance of `505` tokens should be displayed to a user as `5,05` (`505 / 10 ** 2`). Tokens usually opt for a value of 18, imitating the relationship between Ether and Wei. This is the value {ERC20} uses, unless this function is overloaded; NOTE: This information is only used for _display_ purposes: it in no way affects any of the arithmetic of the contract, including {IERC20-balanceOf} and {IERC20-transfer}."
      },
      "decreaseAllowance(address,uint256)": {
        "details": "Atomically decreases the allowance granted to `spender` by the caller. This is an alternative to {approve} that can be used as a mitigation for problems described in {IERC20-approve}. Emits an {Approval} event indicating the updated allowance. Requirements: - `spender` cannot be the zero address. - `spender` must have allowance for the caller of at least `subtractedValue`."
      },
      "increaseAllowance(address,uint256)": {
        "details": "Atomically increases the allowance granted to `spender` by the caller. This is an alternative to {approve} that can be used as a mitigation for problems described in {IERC20-approve}. Emits an {Approval} event indicating the updated allowance. Requirements: - `spender` cannot be the zero address."
      },
      "name()": {
        "details": "Returns the name of the token."
      },
      "owner()": {
        "details": "Returns the address of the current owner."
      },
      "renounceOwnership()": {
        "details": "Leaves the contract without owner. It will not be possible to call `onlyOwner` functions anymore. Can only be called by the current owner. NOTE: Renouncing ownership will leave the contract without an owner, thereby removing any functionality that is only available to the owner."
      },
      "symbol()": {
        "details": "Returns the symbol of the token, usually a shorter version of the name."
      },
      "totalSupply()": {
        "details": "See {IERC20-totalSupply}."
      },
      "transfer(address,uint256)": {
        "details": "See {IERC20-transfer}. Requirements: - `recipient` cannot be the zero address. - the caller must have a balance of at least `amount`."
      },
      "transferFrom(address,address,uint256)": {
        "details": "See {IERC20-transferFrom}. Emits an {Approval} event indicating the updated allowance. This is not required by the EIP. See the note at the beginning of {ERC20}. Requirements: - `sender` and `recipient` cannot be the zero address. - `sender` must have a balance of at least `amount`. - the caller must have allowance for ``sender``'s tokens of at least `amount`."
      },
      "transferOwnership(address)": {
        "details": "Transfers ownership of the contract to a new account (`newOwner`). Can only be called by the current owner."
      }
    },
    "version": 1
  },
  "userdoc": {
    "kind": "user",
    "methods": {},
    "version": 1
  }
}