{
  "contractName": "DecentMed",
  "abi": [
    {
      "inputs": [],
      "stateMutability": "nonpayable",
      "type": "constructor"
    },
    {
      "anonymous": false,
      "inputs": [
        {
          "indexed": true,
          "internalType": "address",
          "name": "owner",
          "type": "address"
        },
        {
          "indexed": true,
          "internalType": "address",
          "name": "spender",
          "type": "address"
        },
        {
          "indexed": false,
          "internalType": "uint256",
          "name": "value",
          "type": "uint256"
        }
      ],
      "name": "Approval",
      "type": "event"
    },
    {
      "anonymous": false,
      "inputs": [
        {
          "indexed": true,
          "internalType": "address",
          "name": "previousOwner",
          "type": "address"
        },
        {
          "indexed": true,
          "internalType": "address",
          "name": "newOwner",
          "type": "address"
        }
      ],
      "name": "OwnershipTransferred",
      "type": "event"
    },
    {
      "anonymous": false,
      "inputs": [
        {
          "indexed": true,
          "internalType": "address",
          "name": "from",
          "type": "address"
        },
        {
          "indexed": true,
          "internalType": "address",
          "name": "to",
          "type": "address"
        },
        {
          "indexed": false,
          "internalType": "uint256",
          "name": "value",
          "type": "uint256"
        }
      ],
      "name": "Transfer",
      "type": "event"
    },
    {
      "inputs": [
        {
          "internalType": "address",
          "name": "owner",
          "type": "address"
        },
        {
          "internalType": "address",
          "name": "spender",
          "type": "address"
        }
      ],
      "name": "allowance",
      "outputs": [
        {
          "internalType": "uint256",
          "name": "",
          "type": "uint256"
        }
      ],
      "stateMutability": "view",
      "type": "function",
      "constant": true
    },
    {
      "inputs": [
        {
          "internalType": "address",
          "name": "account",
          "type": "address"
        }
      ],
      "name": "balanceOf",
      "outputs": [
        {
          "internalType": "uint256",
          "name": "",
          "type": "uint256"
        }
      ],
      "stateMutability": "view",
      "type": "function",
      "constant": true
    },
    {
      "inputs": [],
      "name": "cap",
      "outputs": [
        {
          "internalType": "uint256",
          "name": "",
          "type": "uint256"
        }
      ],
      "stateMutability": "view",
      "type": "function",
      "constant": true
    },
    {
      "inputs": [],
      "name": "decimals",
      "outputs": [
        {
          "internalType": "uint8",
          "name": "",
          "type": "uint8"
        }
      ],
      "stateMutability": "view",
      "type": "function",
      "constant": true
    },
    {
      "inputs": [
        {
          "internalType": "address",
          "name": "spender",
          "type": "address"
        },
        {
          "internalType": "uint256",
          "name": "subtractedValue",
          "type": "uint256"
        }
      ],
      "name": "decreaseAllowance",
      "outputs": [
        {
          "internalType": "bool",
          "name": "",
          "type": "bool"
        }
      ],
      "stateMutability": "nonpayable",
      "type": "function"
    },
    {
      "inputs": [
        {
          "internalType": "address",
          "name": "spender",
          "type": "address"
        },
        {
          "internalType": "uint256",
          "name": "addedValue",
          "type": "uint256"
        }
      ],
      "name": "increaseAllowance",
      "outputs": [
        {
          "internalType": "bool",
          "name": "",
          "type": "bool"
        }
      ],
      "stateMutability": "nonpayable",
      "type": "function"
    },
    {
      "inputs": [],
      "name": "name",
      "outputs": [
        {
          "internalType": "string",
          "name": "",
          "type": "string"
        }
      ],
      "stateMutability": "view",
      "type": "function",
      "constant": true
    },
    {
      "inputs": [],
      "name": "owner",
      "outputs": [
        {
          "internalType": "address",
          "name": "",
          "type": "address"
        }
      ],
      "stateMutability": "view",
      "type": "function",
      "constant": true
    },
    {
      "inputs": [],
      "name": "renounceOwnership",
      "outputs": [],
      "stateMutability": "nonpayable",
      "type": "function"
    },
    {
      "inputs": [],
      "name": "symbol",
      "outputs": [
        {
          "internalType": "string",
          "name": "",
          "type": "string"
        }
      ],
      "stateMutability": "view",
      "type": "function",
      "constant": true
    },
    {
      "inputs": [],
      "name": "totalSupply",
      "outputs": [
        {
          "internalType": "uint256",
          "name": "",
          "type": "uint256"
        }
      ],
      "stateMutability": "view",
      "type": "function",
      "constant": true
    },
    {
      "inputs": [
        {
          "internalType": "address",
          "name": "recipient",
          "type": "address"
        },
        {
          "internalType": "uint256",
          "name": "amount",
          "type": "uint256"
        }
      ],
      "name": "transfer",
      "outputs": [
        {
          "internalType": "bool",
          "name": "",
          "type": "bool"
        }
      ],
      "stateMutability": "nonpayable",
      "type": "function"
    },
    {
      "inputs": [
        {
          "internalType": "address",
          "name": "sender",
          "type": "address"
        },
        {
          "internalType": "address",
          "name": "recipient",
          "type": "address"
        },
        {
          "internalType": "uint256",
          "name": "amount",
          "type": "uint256"
        }
      ],
      "name": "transferFrom",
      "outputs": [
        {
          "internalType": "bool",
          "name": "",
          "type": "bool"
        }
      ],
      "stateMutability": "nonpayable",
      "type": "function"
    },
    {
      "inputs": [
        {
          "internalType": "address",
          "name": "newOwner",
          "type": "address"
        }
      ],
      "name": "transferOwnership",
      "outputs": [],
      "stateMutability": "nonpayable",
      "type": "function"
    },
    {
      "inputs": [
        {
          "internalType": "uint256",
          "name": "amount",
          "type": "uint256"
        }
      ],
      "name": "burn",
      "outputs": [],
      "stateMutability": "nonpayable",
      "type": "function"
    },
    {
      "inputs": [
        {
          "internalType": "address",
          "name": "account",
          "type": "address"
        },
        {
          "internalType": "uint256",
          "name": "amount",
          "type": "uint256"
        }
      ],
      "name": "burnFrom",
      "outputs": [],
      "stateMutability": "nonpayable",
      "type": "function"
    },
    {
      "inputs": [
        {
          "internalType": "address",
          "name": "spender",
          "type": "address"
        },
        {
          "internalType": "uint256",
          "name": "amount",
          "type": "uint256"
        }
      ],
      "name": "approve",
      "outputs": [
        {
          "internalType": "bool",
          "name": "",
          "type": "bool"
        }
      ],
      "stateMutability": "nonpayable",
      "type": "function"
    }
  ],
  "bytecode": "0x60806040523480156200001157600080fd5b50620186a06040518060400160405280600981526020017f446563656e744d656400000000000000000000000000000000000000000000008152506040518060400160405280600481526020017f444d454400000000000000000000000000000000000000000000000000000000815250601267016345785d8a00006040518060400160405280600a81526020017f446563656e74204d65640000000000000000000000000000000000000000000081525093506040518060400160405280600481526020017f444d45440000000000000000000000000000000000000000000000000000000081525092506012915067016345785d8a00009050505050506000811162000156576040517f08c379a00000000000000000000000000000000000000000000000000000000081526004016200014d90620004ce565b60405180910390fd5b806005819055505060016006819055506000620001786200023160201b60201c565b905080600760006101000a81548173ffffffffffffffffffffffffffffffffffffffff021916908373ffffffffffffffffffffffffffffffffffffffff1602179055508073ffffffffffffffffffffffffffffffffffffffff16600073ffffffffffffffffffffffffffffffffffffffff167f8be0079c531659141344cd1fd0a4f28419497f9722a3daafe3b4186f6b6457e060405160405180910390a3506200022b336103e86200023960201b60201c565b62000673565b600033905090565b62000249620002ca60201b60201c565b816200025f620002d460201b620004f41760201c565b6200026b919062000562565b1115620002af576040517f08c379a0000000000000000000000000000000000000000000000000000000008152600401620002a690620004f0565b60405180910390fd5b620002c68282620002de60201b62000ce31760201c565b5050565b6000600554905090565b6000600254905090565b600073ffffffffffffffffffffffffffffffffffffffff168273ffffffffffffffffffffffffffffffffffffffff16141562000351576040517f08c379a0000000000000000000000000000000000000000000000000000000008152600401620003489062000512565b60405180910390fd5b62000365600083836200044360201b60201c565b806002600082825462000379919062000562565b92505081905550806000808473ffffffffffffffffffffffffffffffffffffffff1673ffffffffffffffffffffffffffffffffffffffff1681526020019081526020016000206000828254620003d0919062000562565b925050819055508173ffffffffffffffffffffffffffffffffffffffff16600073ffffffffffffffffffffffffffffffffffffffff167fddf252ad1be2c89b69c2b068fc378daa952ba7f163c4a11628f55a4df523b3ef8360405162000437919062000534565b60405180910390a35050565b505050565b60006200045760158362000551565b91506200046482620005f8565b602082019050919050565b60006200047e60198362000551565b91506200048b8262000621565b602082019050919050565b6000620004a5601f8362000551565b9150620004b2826200064a565b602082019050919050565b620004c881620005bf565b82525050565b60006020820190508181036000830152620004e98162000448565b9050919050565b600060208201905081810360008301526200050b816200046f565b9050919050565b600060208201905081810360008301526200052d8162000496565b9050919050565b60006020820190506200054b6000830184620004bd565b92915050565b600082825260208201905092915050565b60006200056f82620005bf565b91506200057c83620005bf565b9250827fffffffffffffffffffffffffffffffffffffffffffffffffffffffffffffffff03821115620005b457620005b3620005c9565b5b828201905092915050565b6000819050919050565b7f4e487b7100000000000000000000000000000000000000000000000000000000600052601160045260246000fd5b7f45524332304361707065643a2063617020697320300000000000000000000000600082015250565b7f45524332304361707065643a2063617020657863656564656400000000000000600082015250565b7f45524332303a206d696e7420746f20746865207a65726f206164647265737300600082015250565b611f3980620006836000396000f3fe608060405234801561001057600080fd5b506004361061010b5760003560e01c806370a08231116100a257806395d89b411161007157806395d89b41146102a8578063a457c2d7146102c6578063a9059cbb146102f6578063dd62ed3e14610326578063f2fde38b146103565761010b565b806370a0823114610234578063715018a61461026457806379cc67901461026e5780638da5cb5b1461028a5761010b565b8063313ce567116100de578063313ce567146101ac578063355274ea146101ca57806339509351146101e857806342966c68146102185761010b565b806306fdde0314610110578063095ea7b31461012e57806318160ddd1461015e57806323b872dd1461017c575b600080fd5b610118610372565b6040516101259190611778565b60405180910390f35b61014860048036038101906101439190611499565b610404565b604051610155919061175d565b60405180910390f35b6101666104f4565b604051610173919061193a565b60405180910390f35b61019660048036038101906101919190611446565b6104fe565b6040516101a3919061175d565b60405180910390f35b6101b46105ff565b6040516101c19190611955565b60405180910390f35b6101d2610608565b6040516101df919061193a565b60405180910390f35b61020260048036038101906101fd9190611499565b610612565b60405161020f919061175d565b60405180910390f35b610232600480360381019061022d91906114d9565b6106be565b005b61024e600480360381019061024991906113d9565b6106d2565b60405161025b919061193a565b60405180910390f35b61026c61071a565b005b61028860048036038101906102839190611499565b610857565b005b6102926108e2565b60405161029f9190611742565b60405180910390f35b6102b061090c565b6040516102bd9190611778565b60405180910390f35b6102e060048036038101906102db9190611499565b61099e565b6040516102ed919061175d565b60405180910390f35b610310600480360381019061030b9190611499565b610a92565b60405161031d919061175d565b60405180910390f35b610340600480360381019061033b9190611406565b610ab0565b60405161034d919061193a565b60405180910390f35b610370600480360381019061036b91906113d9565b610b37565b005b60606003805461038190611a9e565b80601f01602080910402602001604051908101604052809291908181526020018280546103ad90611a9e565b80156103fa5780601f106103cf576101008083540402835291602001916103fa565b820191906000526020600020905b8154815290600101906020018083116103dd57829003601f168201915b5050505050905090565b60006002600654141561044c576040517f08c379a0000000000000000000000000000000000000000000000000000000008152600401610443906118da565b60405180910390fd5b600260068190555061045c610e37565b73ffffffffffffffffffffffffffffffffffffffff1661047a6108e2565b73ffffffffffffffffffffffffffffffffffffffff16146104d0576040517f08c379a00000000000000000000000000000000000000000000000000000000081526004016104c79061183a565b60405180910390fd5b6104e26104db610e37565b8484610e3f565b60019050600160068190555092915050565b6000600254905090565b600061050b84848461100a565b6000600160008673ffffffffffffffffffffffffffffffffffffffff1673ffffffffffffffffffffffffffffffffffffffff1681526020019081526020016000206000610556610e37565b73ffffffffffffffffffffffffffffffffffffffff1673ffffffffffffffffffffffffffffffffffffffff168152602001908152602001600020549050828110156105d6576040517f08c379a00000000000000000000000000000000000000000000000000000000081526004016105cd9061181a565b60405180910390fd5b6105f3856105e2610e37565b85846105ee91906119e2565b610e3f565b60019150509392505050565b60006012905090565b6000600554905090565b60006106b461061f610e37565b84846001600061062d610e37565b73ffffffffffffffffffffffffffffffffffffffff1673ffffffffffffffffffffffffffffffffffffffff16815260200190815260200160002060008873ffffffffffffffffffffffffffffffffffffffff1673ffffffffffffffffffffffffffffffffffffffff168152602001908152602001600020546106af919061198c565b610e3f565b6001905092915050565b6106cf6106c9610e37565b826111c0565b50565b60008060008373ffffffffffffffffffffffffffffffffffffffff1673ffffffffffffffffffffffffffffffffffffffff168152602001908152602001600020549050919050565b610722610e37565b73ffffffffffffffffffffffffffffffffffffffff166107406108e2565b73ffffffffffffffffffffffffffffffffffffffff1614610796576040517f08c379a000000000000000000000000000000000000000000000000000000000815260040161078d9061183a565b60405180910390fd5b600073ffffffffffffffffffffffffffffffffffffffff16600760009054906101000a900473ffffffffffffffffffffffffffffffffffffffff1673ffffffffffffffffffffffffffffffffffffffff167f8be0079c531659141344cd1fd0a4f28419497f9722a3daafe3b4186f6b6457e060405160405180910390a36000600760006101000a81548173ffffffffffffffffffffffffffffffffffffffff021916908373ffffffffffffffffffffffffffffffffffffffff160217905550565b600061086a83610865610e37565b610ab0565b9050818110156108af576040517f08c379a00000000000000000000000000000000000000000000000000000000081526004016108a69061185a565b60405180910390fd5b6108d3836108bb610e37565b6108ce858561139490919063ffffffff16565b610e3f565b6108dd83836111c0565b505050565b6000600760009054906101000a900473ffffffffffffffffffffffffffffffffffffffff16905090565b60606004805461091b90611a9e565b80601f016020809104026020016040519081016040528092919081815260200182805461094790611a9e565b80156109945780601f1061096957610100808354040283529160200191610994565b820191906000526020600020905b81548152906001019060200180831161097757829003601f168201915b5050505050905090565b600080600160006109ad610e37565b73ffffffffffffffffffffffffffffffffffffffff1673ffffffffffffffffffffffffffffffffffffffff16815260200190815260200160002060008573ffffffffffffffffffffffffffffffffffffffff1673ffffffffffffffffffffffffffffffffffffffff16815260200190815260200160002054905082811015610a6a576040517f08c379a0000000000000000000000000000000000000000000000000000000008152600401610a61906118fa565b60405180910390fd5b610a87610a75610e37565b858584610a8291906119e2565b610e3f565b600191505092915050565b6000610aa6610a9f610e37565b848461100a565b6001905092915050565b6000600160008473ffffffffffffffffffffffffffffffffffffffff1673ffffffffffffffffffffffffffffffffffffffff16815260200190815260200160002060008373ffffffffffffffffffffffffffffffffffffffff1673ffffffffffffffffffffffffffffffffffffffff16815260200190815260200160002054905092915050565b610b3f610e37565b73ffffffffffffffffffffffffffffffffffffffff16610b5d6108e2565b73ffffffffffffffffffffffffffffffffffffffff1614610bb3576040517f08c379a0000000000000000000000000000000000000000000000000000000008152600401610baa9061183a565b60405180910390fd5b600073ffffffffffffffffffffffffffffffffffffffff168173ffffffffffffffffffffffffffffffffffffffff161415610c23576040517f08c379a0000000000000000000000000000000000000000000000000000000008152600401610c1a906117da565b60405180910390fd5b8073ffffffffffffffffffffffffffffffffffffffff16600760009054906101000a900473ffffffffffffffffffffffffffffffffffffffff1673ffffffffffffffffffffffffffffffffffffffff167f8be0079c531659141344cd1fd0a4f28419497f9722a3daafe3b4186f6b6457e060405160405180910390a380600760006101000a81548173ffffffffffffffffffffffffffffffffffffffff021916908373ffffffffffffffffffffffffffffffffffffffff16021790555050565b600073ffffffffffffffffffffffffffffffffffffffff168273ffffffffffffffffffffffffffffffffffffffff161415610d53576040517f08c379a0000000000000000000000000000000000000000000000000000000008152600401610d4a9061191a565b60405180910390fd5b610d5f600083836113aa565b8060026000828254610d71919061198c565b92505081905550806000808473ffffffffffffffffffffffffffffffffffffffff1673ffffffffffffffffffffffffffffffffffffffff1681526020019081526020016000206000828254610dc6919061198c565b925050819055508173ffffffffffffffffffffffffffffffffffffffff16600073ffffffffffffffffffffffffffffffffffffffff167fddf252ad1be2c89b69c2b068fc378daa952ba7f163c4a11628f55a4df523b3ef83604051610e2b919061193a565b60405180910390a35050565b600033905090565b600073ffffffffffffffffffffffffffffffffffffffff168373ffffffffffffffffffffffffffffffffffffffff161415610eaf576040517f08c379a0000000000000000000000000000000000000000000000000000000008152600401610ea6906118ba565b60405180910390fd5b600073ffffffffffffffffffffffffffffffffffffffff168273ffffffffffffffffffffffffffffffffffffffff161415610f1f576040517f08c379a0000000000000000000000000000000000000000000000000000000008152600401610f16906117fa565b60405180910390fd5b80600160008573ffffffffffffffffffffffffffffffffffffffff1673ffffffffffffffffffffffffffffffffffffffff16815260200190815260200160002060008473ffffffffffffffffffffffffffffffffffffffff1673ffffffffffffffffffffffffffffffffffffffff168152602001908152602001600020819055508173ffffffffffffffffffffffffffffffffffffffff168373ffffffffffffffffffffffffffffffffffffffff167f8c5be1e5ebec7d5bd14f71427d1e84f3dd0314c0f7b2291e5b200ac8c7c3b92583604051610ffd919061193a565b60405180910390a3505050565b60026006541415611050576040517f08c379a0000000000000000000000000000000000000000000000000000000008152600401611047906118da565b60405180910390fd5b6002600681905550600073ffffffffffffffffffffffffffffffffffffffff168373ffffffffffffffffffffffffffffffffffffffff1614156110c8576040517f08c379a00000000000000000000000000000000000000000000000000000000081526004016110bf9061189a565b60405180910390fd5b600073ffffffffffffffffffffffffffffffffffffffff168273ffffffffffffffffffffffffffffffffffffffff161415611138576040517f08c379a000000000000000000000000000000000000000000000000000000000815260040161112f9061179a565b60405180910390fd5b6111438383836113aa565b61114e33838361100a565b8173ffffffffffffffffffffffffffffffffffffffff168373ffffffffffffffffffffffffffffffffffffffff167fddf252ad1be2c89b69c2b068fc378daa952ba7f163c4a11628f55a4df523b3ef836040516111ab919061193a565b60405180910390a36001600681905550505050565b600073ffffffffffffffffffffffffffffffffffffffff168273ffffffffffffffffffffffffffffffffffffffff161415611230576040517f08c379a00000000000000000000000000000000000000000000000000000000081526004016112279061187a565b60405180910390fd5b61123c826000836113aa565b60008060008473ffffffffffffffffffffffffffffffffffffffff1673ffffffffffffffffffffffffffffffffffffffff168152602001908152602001600020549050818110156112c2576040517f08c379a00000000000000000000000000000000000000000000000000000000081526004016112b9906117ba565b60405180910390fd5b81816112ce91906119e2565b6000808573ffffffffffffffffffffffffffffffffffffffff1673ffffffffffffffffffffffffffffffffffffffff16815260200190815260200160002081905550816002600082825461132291906119e2565b92505081905550600073ffffffffffffffffffffffffffffffffffffffff168373ffffffffffffffffffffffffffffffffffffffff167fddf252ad1be2c89b69c2b068fc378daa952ba7f163c4a11628f55a4df523b3ef84604051611387919061193a565b60405180910390a3505050565b600081836113a291906119e2565b905092915050565b505050565b6000813590506113be81611ed5565b92915050565b6000813590506113d381611eec565b92915050565b6000602082840312156113ef576113ee611b2e565b5b60006113fd848285016113af565b91505092915050565b6000806040838503121561141d5761141c611b2e565b5b600061142b858286016113af565b925050602061143c858286016113af565b9150509250929050565b60008060006060848603121561145f5761145e611b2e565b5b600061146d868287016113af565b935050602061147e868287016113af565b925050604061148f868287016113c4565b9150509250925092565b600080604083850312156114b0576114af611b2e565b5b60006114be858286016113af565b92505060206114cf858286016113c4565b9150509250929050565b6000602082840312156114ef576114ee611b2e565b5b60006114fd848285016113c4565b91505092915050565b61150f81611a16565b82525050565b61151e81611a28565b82525050565b600061152f82611970565b611539818561197b565b9350611549818560208601611a6b565b61155281611b33565b840191505092915050565b600061156a60238361197b565b915061157582611b44565b604082019050919050565b600061158d60228361197b565b915061159882611b93565b604082019050919050565b60006115b060268361197b565b91506115bb82611be2565b604082019050919050565b60006115d360228361197b565b91506115de82611c31565b604082019050919050565b60006115f660288361197b565b915061160182611c80565b604082019050919050565b600061161960208361197b565b915061162482611ccf565b602082019050919050565b600061163c60248361197b565b915061164782611cf8565b604082019050919050565b600061165f60218361197b565b915061166a82611d47565b604082019050919050565b600061168260258361197b565b915061168d82611d96565b604082019050919050565b60006116a560248361197b565b91506116b082611de5565b604082019050919050565b60006116c8601f8361197b565b91506116d382611e34565b602082019050919050565b60006116eb60258361197b565b91506116f682611e5d565b604082019050919050565b600061170e601f8361197b565b915061171982611eac565b602082019050919050565b61172d81611a54565b82525050565b61173c81611a5e565b82525050565b60006020820190506117576000830184611506565b92915050565b60006020820190506117726000830184611515565b92915050565b600060208201905081810360008301526117928184611524565b905092915050565b600060208201905081810360008301526117b38161155d565b9050919050565b600060208201905081810360008301526117d381611580565b9050919050565b600060208201905081810360008301526117f3816115a3565b9050919050565b60006020820190508181036000830152611813816115c6565b9050919050565b60006020820190508181036000830152611833816115e9565b9050919050565b600060208201905081810360008301526118538161160c565b9050919050565b600060208201905081810360008301526118738161162f565b9050919050565b6000602082019050818103600083015261189381611652565b9050919050565b600060208201905081810360008301526118b381611675565b9050919050565b600060208201905081810360008301526118d381611698565b9050919050565b600060208201905081810360008301526118f3816116bb565b9050919050565b60006020820190508181036000830152611913816116de565b9050919050565b6000602082019050818103600083015261193381611701565b9050919050565b600060208201905061194f6000830184611724565b92915050565b600060208201905061196a6000830184611733565b92915050565b600081519050919050565b600082825260208201905092915050565b600061199782611a54565b91506119a283611a54565b9250827fffffffffffffffffffffffffffffffffffffffffffffffffffffffffffffffff038211156119d7576119d6611ad0565b5b828201905092915050565b60006119ed82611a54565b91506119f883611a54565b925082821015611a0b57611a0a611ad0565b5b828203905092915050565b6000611a2182611a34565b9050919050565b60008115159050919050565b600073ffffffffffffffffffffffffffffffffffffffff82169050919050565b6000819050919050565b600060ff82169050919050565b60005b83811015611a89578082015181840152602081019050611a6e565b83811115611a98576000848401525b50505050565b60006002820490506001821680611ab657607f821691505b60208210811415611aca57611ac9611aff565b5b50919050565b7f4e487b7100000000000000000000000000000000000000000000000000000000600052601160045260246000fd5b7f4e487b7100000000000000000000000000000000000000000000000000000000600052602260045260246000fd5b600080fd5b6000601f19601f8301169050919050565b7f45524332303a207472616e7366657220746f20746865207a65726f206164647260008201527f6573730000000000000000000000000000000000000000000000000000000000602082015250565b7f45524332303a206275726e20616d6f756e7420657863656564732062616c616e60008201527f6365000000000000000000000000000000000000000000000000000000000000602082015250565b7f4f776e61626c653a206e6577206f776e657220697320746865207a65726f206160008201527f6464726573730000000000000000000000000000000000000000000000000000602082015250565b7f45524332303a20617070726f766520746f20746865207a65726f20616464726560008201527f7373000000000000000000000000000000000000000000000000000000000000602082015250565b7f45524332303a207472616e7366657220616d6f756e742065786365656473206160008201527f6c6c6f77616e6365000000000000000000000000000000000000000000000000602082015250565b7f4f776e61626c653a2063616c6c6572206973206e6f7420746865206f776e6572600082015250565b7f45524332303a206275726e20616d6f756e74206578636565647320616c6c6f7760008201527f616e636500000000000000000000000000000000000000000000000000000000602082015250565b7f45524332303a206275726e2066726f6d20746865207a65726f2061646472657360008201527f7300000000000000000000000000000000000000000000000000000000000000602082015250565b7f45524332303a207472616e736665722066726f6d20746865207a65726f20616460008201527f6472657373000000000000000000000000000000000000000000000000000000602082015250565b7f45524332303a20617070726f76652066726f6d20746865207a65726f2061646460008201527f7265737300000000000000000000000000000000000000000000000000000000602082015250565b7f5265656e7472616e637947756172643a207265656e7472616e742063616c6c00600082015250565b7f45524332303a2064656372656173656420616c6c6f77616e63652062656c6f7760008201527f207a65726f000000000000000000000000000000000000000000000000000000602082015250565b7f45524332303a206d696e7420746f20746865207a65726f206164647265737300600082015250565b611ede81611a16565b8114611ee957600080fd5b50565b611ef581611a54565b8114611f0057600080fd5b5056fea2646970667358221220a746daff3bc4d6a573ada8d186da795f903b25e82b70c0d5b1988f0aae6f292b64736f6c63430008070033",
  "immutableReferences": {},
  "source": "// SPDX-License-Identifier: MIT\r\npragma solidity ^0.8.4;\r\nimport \"../@openzeppelin/contracts/token/ERC20/ERC20.sol\";\r\nimport \"../@openzeppelin/contracts/utils/math/SafeMath.sol\";\r\nimport \"../@openzeppelin/contracts/access/Ownable.sol\";\r\nimport \"../@openzeppelin/contracts/security/ReentrancyGuard.sol\";\r\nimport \"../@openzeppelin/contracts/security/PullPayment.sol\";\r\nimport \"../@openzeppelin/contracts/token/ERC20/extensions/ERC20Capped.sol\";\r\nimport \"../@openzeppelin/contracts/governance/TimelockController.sol\";\r\ncontract DecentMed is ERC20Capped, ReentrancyGuard, Ownable {\r\n    using SafeMath for uint256;\r\n    using Address for uint256;\r\n    constructor() ERC20(\"DecentMed\", \"DMED\", 18, 100000000000000000) ERC20Capped(100000) {\r\n            _mint (msg.sender, 1000);\r\n        }\r\n\r\n         function burn(uint256 amount) public virtual {\r\n            _burn(_msgSender(), amount);\r\n        }\r\n         function burnFrom(address account, uint256 amount) public virtual {\r\n            uint256 currentAllowance = allowance(account, _msgSender());\r\n            require(currentAllowance >= amount, \"ERC20: burn amount exceeds allowance\");\r\n            _approve(account, _msgSender(), currentAllowance .sub(amount));\r\n            _burn(account, amount);\r\n        }\r\n        function isContract(address account) internal view returns (bool) {\r\n            // This method relies on extcodesize, which returns 0 for contracts in\r\n            // construction, since the code is only stored at the end of the\r\n            // constructor execution.\r\n\r\n            uint256 size;\r\n            // solhint-disable-next-line no-inline-assembly\r\n            assembly { size := extcodesize(account) }\r\n            return size > 0;\r\n        }\r\n        function _transfer(address sender, address recipient, uint256 amount) internal virtual override nonReentrant {\r\n            require(sender != address(0), \"ERC20: transfer from the zero address\");\r\n            require(recipient != address(0), \"ERC20: transfer to the zero address\");\r\n\r\n            _beforeTokenTransfer(sender, recipient, amount);\r\n            _transfer(msg.sender, recipient, amount);\r\n\r\n            emit Transfer(sender, recipient, amount);\r\n\r\n        }\r\n        function approve(address spender, uint256 amount) public virtual override nonReentrant onlyOwner returns (bool) {\r\n            _approve(_msgSender(), spender, amount);\r\n            return true; \r\n        }\r\n}",
  "sourcePath": "C:/Users/samue/DMEDWEBSITE/DMEDTOKEN/contracts/DECENTMEDtoken.sol",
  "compiler": {
    "name": "solc",
    "version": "0.8.7+commit.e28d00a7.Emscripten.clang"
  },
  "schemaVersion": "3.3.4",
  "updatedAt": "2021-08-17T17:20:48.091Z",
  "networkType": "ethereum",
  "devdoc": {
    "kind": "dev",
    "methods": {
      "allowance(address,address)": {
        "details": "See {IERC20-allowance}."
      },
      "approve(address,uint256)": {
        "details": "See {IERC20-approve}. Requirements: - `spender` cannot be the zero address."
      },
      "balanceOf(address)": {
        "details": "See {IERC20-balanceOf}."
      },
      "cap()": {
        "details": "Returns the cap on the token's total supply."
      },
      "decimals()": {
        "details": "Returns the number of decimals used to get its user representation. For example, if `decimals` equals `2`, a balance of `505` tokens should be displayed to a user as `5,05` (`505 / 10 ** 2`). Tokens usually opt for a value of 18, imitating the relationship between Ether and Wei. This is the value {ERC20} uses, unless this function is overloaded; NOTE: This information is only used for _display_ purposes: it in no way affects any of the arithmetic of the contract, including {IERC20-balanceOf} and {IERC20-transfer}."
      },
      "decreaseAllowance(address,uint256)": {
        "details": "Atomically decreases the allowance granted to `spender` by the caller. This is an alternative to {approve} that can be used as a mitigation for problems described in {IERC20-approve}. Emits an {Approval} event indicating the updated allowance. Requirements: - `spender` cannot be the zero address. - `spender` must have allowance for the caller of at least `subtractedValue`."
      },
      "increaseAllowance(address,uint256)": {
        "details": "Atomically increases the allowance granted to `spender` by the caller. This is an alternative to {approve} that can be used as a mitigation for problems described in {IERC20-approve}. Emits an {Approval} event indicating the updated allowance. Requirements: - `spender` cannot be the zero address."
      },
      "name()": {
        "details": "Returns the name of the token."
      },
      "owner()": {
        "details": "Returns the address of the current owner."
      },
      "renounceOwnership()": {
        "details": "Leaves the contract without owner. It will not be possible to call `onlyOwner` functions anymore. Can only be called by the current owner. NOTE: Renouncing ownership will leave the contract without an owner, thereby removing any functionality that is only available to the owner."
      },
      "symbol()": {
        "details": "Returns the symbol of the token, usually a shorter version of the name."
      },
      "totalSupply()": {
        "details": "See {IERC20-totalSupply}."
      },
      "transfer(address,uint256)": {
        "details": "See {IERC20-transfer}. Requirements: - `recipient` cannot be the zero address. - the caller must have a balance of at least `amount`."
      },
      "transferFrom(address,address,uint256)": {
        "details": "See {IERC20-transferFrom}. Emits an {Approval} event indicating the updated allowance. This is not required by the EIP. See the note at the beginning of {ERC20}. Requirements: - `sender` and `recipient` cannot be the zero address. - `sender` must have a balance of at least `amount`. - the caller must have allowance for ``sender``'s tokens of at least `amount`."
      },
      "transferOwnership(address)": {
        "details": "Transfers ownership of the contract to a new account (`newOwner`). Can only be called by the current owner."
      }
    },
    "version": 1
  },
  "userdoc": {
    "kind": "user",
    "methods": {},
    "version": 1
  }
}